:100000000C9462000C948A000C948A000C948A0070
:100010000C948A000C948A000C948A000C948A0038
:100020000C948A000C948A000C948A000C948A0028
:100030000C948A000C948A000C948A000C948A0018
:100040000C940C020C948A000C948A000C948A0084
:100050000C948A000C948A000C948A000C948A00F8
:100060000C948A000C948A000000000024002700F1
:100070002A0000000000250028002B0000000000DE
:1000800023002600290004040404040404040202DA
:100090000202020203030303030301020408102007
:1000A0004080010204081020010204081020000012
:1000B0000008000201000003040700000000000027
:1000C0000000300311241FBECFEFD8E0DEBFCDBF4C
:1000D00011E0A0E0B1E0E0E0F8E002C005900D9290
:1000E000A233B107D9F721E0A2E3B1E001C01D922C
:1000F000A335B207E1F710E0C2E6D0E004C02197D3
:10010000FE010E94F803C136D107C9F70E945602CA
:100110000C94FE030C940000AF92BF92CF92DF923A
:10012000EF92FF920F931F93CF93DF936C017B01AC
:100130008B01040F151FEB015E01AE18BF08C0173D
:10014000D10759F06991D601ED91FC910190F081B0
:10015000E02DC6010995892B79F7C501DF91CF9173
:100160001F910F91FF90EF90DF90CF90BF90AF90D5
:100170000895833081F028F4813099F08230A9F01D
:1001800008958730A9F08830C9F08430B1F48091A7
:1001900080008F7D03C0809180008F7780938000E6
:1001A000089584B58F7784BD089584B58F7DFBCF86
:1001B0008091B0008F778093B00008958091B00057
:1001C0008F7DF9CF1F93CF93DF93282F30E0F90174
:1001D000E255FF4F8491F901E656FF4FD491F901A2
:1001E000EA57FF4FC491CC23A9F0162F81110E942A
:1001F000B900EC2FF0E0EE0FFF1FEE58FF4FA59176
:10020000B4918FB7F894EC91111108C0D095DE230A
:10021000DC938FBFDF91CF911F910895DE2BF8CF34
:10022000CF93DF9390E0FC01E656FF4F24918A576D
:100230009F4FFC0184918823D1F090E0880F991F93
:10024000FC01E859FF4FA591B491FC01EE58FF4F16
:10025000C591D49161110EC09FB7F8948C91E22F93
:10026000E0958E238C932881E223E8839FBFDF9162
:10027000CF9108958FB7F894EC91E22BEC938FBF58
:10028000F6CF3FB7F8948091370190913801A09153
:100290003901B0913A0126B5A89B05C02F3F19F04E
:1002A0000196A11DB11D3FBFBA2FA92F982F8827F6
:1002B000BC01CD01620F711D811D911D42E0660FD1
:1002C000771F881F991F4A95D1F70895089590E0E8
:1002D00080E00895CF93DF93EC0160E08E810E946F
:1002E000E20061E08E810E94E20060E08E810E9467
:1002F000E2008BE891E00197F1F7DF91CF9108954B
:10030000CF92DF92EF92FF920F931F93CF93DF93E1
:100310006C017C0187E0E80EF11CD0E0C0E0062F04
:1003200010E0B8010C2E02C0759567950A94E2F7AB
:100330006170F70181917F010E94E2002196C43033
:10034000D10579F7C601DF91CF911F910F91FF90F1
:10035000EF90DF90CF900C946A01CF92DF92EF92F2
:10036000FF920F931F93CF93DF93EC01F62E642F30
:100370008C810E94E2008D818F3F19F060E00E9425
:10038000E2000F2D10E08F8584FF25C06E0187E00D
:10039000C80ED11CF12CE12CB8010E2C02C07595B1
:1003A00067950A94E2F76170F60181916F010E94EE
:1003B000E200FFEFEF1AFF0A88E0E816F10461F7A8
:1003C000CE01DF91CF911F910F91FF90EF90DF90C1
:1003D000CF900C946A01B80184E0759567958A9571
:1003E000E1F7CE010E9480016F2DCE01DF91CF9108
:1003F0001F910F91FF90EF90DF90CF900C948001B0
:1004000040E0682F8BE391E00C94AD0141E00E9445
:10041000AD0181E090E008951F920F920FB60F9208
:1004200011242F933F938F939F93AF93BF9380910A
:10043000330190913401A0913501B0913601309192
:10044000320123E0230F2D3758F50196A11DB11D70
:10045000209332018093330190933401A0933501AE
:10046000B09336018091370190913801A091390104
:10047000B0913A010196A11DB11D8093370190936F
:100480003801A0933901B0933A01BF91AF919F9188
:100490008F913F912F910F900FBE0F901F90189545
:1004A00026E8230F0296A11DB11DD2CF789484B502
:1004B000826084BD84B5816084BD85B5826085BD60
:1004C00085B5816085BD80916E00816080936E00EE
:1004D00010928100809181008260809381008091E0
:1004E0008100816080938100809180008160809391
:1004F00080008091B10084608093B1008091B00051
:1005000081608093B00080917A00846080937A004B
:1005100080917A00826080937A0080917A00816075
:1005200080937A0080917A00806880937A0010929C
:10053000C10060E089E00E94100127EB222E20E03C
:10054000322E33EA832E30E0932ECFE8D0E00BE357
:100550001FE140E0A42E40E0B42EF1018491F401AB
:10056000F490FE01E490EE2009F45EC081110E9437
:10057000B900EE2DF0E0EE0FFF1FE458FF4FA591FC
:10058000B4918C91F82209F44FC0E1E080914E01C2
:100590008111E0E0E195F0E0E55CFE4F8489806840
:1005A0000E94000242E150E06CE071E08BE391E0D8
:1005B0000E948C0061E087E00E94E20060E086E03B
:1005C0000E94E2000E9441012B013C0184EFC82EF1
:1005D000DD24D394E12CF12C0E94410164197509AA
:1005E00086099709683E734081059105A8F3F1E0FB
:1005F000CF1AD108E108F10828EE420E23E0521E7E
:10060000611C711CC114D104E104F10429F781E0DB
:100610000E940002C8010197F1F7A114B10409F486
:100620009CCF0E94000099CFE1E080914E018111A2
:10063000E0E0E195F0E0E55CFE4F848980680E948F
:10064000000241E150E06FE171E08BE391E00E9434
:100650008C0061E086E00E94E20060E087E0B0CFBD
:10066000CF93DF9310923E0110923D0184E091E020
:1006700090933C0180933B018CE080933F018FEF8E
:10068000809340018BE08093410185E0809342019B
:1006900084E08093430183E08093440182E080936F
:1006A00045011092460110924701109248011092A4
:1006B000490110924A0181E080934E0110924F014E
:1006C00080E48093500180E18093510180E5809324
:1006D000520161E08CE00E941001809140018F3F47
:1006E00019F061E00E94100161E0809141010E94D7
:1006F0001001CBE3D1E09E012B53314080914A01A0
:1007000084FD0BC084E090E021962817390744F45B
:1007100061E08E810E941001EECF88E090E0F4CF7E
:100720008BE39DE00197F1F760E080913F010E942B
:10073000E20060E0809141010E94E200809140016E
:100740008F3F19F060E00E94E20080914A0184FD31
:1007500039C063E08BE391E00E948001CBE4D6E4F2
:10076000CE010197F1F763E08BE391E00E948001F5
:100770002197F1F763E08BE391E00E94800183E52C
:1007800092E00197F1F762E08BE391E00E94800133
:1007900080914A0180620E94000284E080934B01B4
:1007A0008CE00E94000281E00E9400028BE39FE146
:1007B0000197F1F782E080934C0186E0DF91CF91C1
:1007C0000C94000280620E9400028BE496E4019780
:1007D000F1F780914A0180620E94000283E592E075
:1007E0000197F1F780914A0180620E940002D0CF08
:1007F000EE0FFF1F0590F491E02D0994F894FFCFC0
:100800000000000006028C0067016601204761734A
:100810002044657465637465642059657320002005
:10082000476173204E6F204465746563746564206E
:020830000000C6
:107E0000112484B714BE81FFF0D085E080938100F7
:107E100082E08093C00088E18093C10086E0809377
:107E2000C20080E18093C4008EE0C9D0259A86E02C
:107E300020E33CEF91E0309385002093840096BBD3
:107E4000B09BFECF1D9AA8958150A9F7CC24DD24C4
:107E500088248394B5E0AB2EA1E19A2EF3E0BF2EE7
:107E6000A2D0813461F49FD0082FAFD0023811F036
:107E7000013811F484E001C083E08DD089C08234E0
:107E800011F484E103C0853419F485E0A6D080C0E4
:107E9000853579F488D0E82EFF2485D0082F10E0AE
:107EA000102F00270E291F29000F111F8ED06801E7
:107EB0006FC0863521F484E090D080E0DECF843638
:107EC00009F040C070D06FD0082F6DD080E0C81688
:107ED00080E7D80618F4F601B7BEE895C0E0D1E017
:107EE00062D089930C17E1F7F0E0CF16F0E7DF06D8
:107EF00018F0F601B7BEE89568D007B600FCFDCFD4
:107F0000A601A0E0B1E02C9130E011968C91119780
:107F100090E0982F8827822B932B1296FA010C0160
:107F200087BEE89511244E5F5F4FF1E0A038BF0790
:107F300051F7F601A7BEE89507B600FCFDCF97BE46
:107F4000E89526C08437B1F42ED02DD0F82E2BD052
:107F50003CD0F601EF2C8F010F5F1F4F84911BD097
:107F6000EA94F801C1F70894C11CD11CFA94CF0C13
:107F7000D11C0EC0853739F428D08EE10CD085E9AC
:107F80000AD08FE07ACF813511F488E018D01DD067
:107F900080E101D065CF982F8091C00085FFFCCF94
:107FA0009093C60008958091C00087FFFCCF809118
:107FB000C00084FD01C0A8958091C6000895E0E648
:107FC000F0E098E1908380830895EDDF803219F02E
:107FD00088E0F5DFFFCF84E1DECF1F93182FE3DFCA
:107FE0001150E9F7F2DF1F91089580E0E8DFEE27F6
:047FF000FF270994CA
:027FFE00040479
:0400000300007E007B
:00000001FF
